:020000040800F2
:10000000D00400207D010008EF0D00087D0B0008E2
:10001000ED0D0008790B0008890E000800000000B3
:10002000000000000000000000000000130E0008A7
:100030007B0B000800000000110E0008150E0008E0
:100040009701000897010008970100089701000830
:100050009701000897010008970100089701000820
:100060009701000897010008970100089701000810
:100070009701000897010008970100089701000800
:100080009701000897010008000000009701000890
:10009000970100089701000897010008830B0008EA
:1000A00097010008970100089701000897010008D0
:1000B0009701000800000000970100080000000000
:1000C0007F0B00080000000097010008970100085E
:1000D0009701000897010008970100080000000040
:1000E00000000000000000009701000897010008D0
:1000F0009701000897010008970100089701000880
:1001000097010008000000000000000097010008AF
:1001100000000000000000000000000000000000DF
:1001200000000000000000000000000000000000CF
:1001300000000000000000000000000000000000BF
:1001400000000000000000000000000000000000AF
:10015000000000000000000097010008970100085F
:100160009701000897010008DFF80CD000F080FC30
:1001700000480047E5310008D004002006488047C9
:1001800006480047FEE7FEE7FEE7FEE7FEE7FEE77C
:10019000FEE7FEE7FEE7FEE7250E0008690100081E
:1001A0002DE9F0410024061B254671F1000605DA11
:1001B00001240027D0EB070067EB0101161E73F145
:1001C000000605DA0027D2EB0702012567EB0303DF
:1001D00000F01BFA86460E4617469C46AC4204D0F9
:1001E0000025D0EB050E65EB010624B10020D2EB13
:1001F000000760EB030C704631463A466346BDE8A3
:10020000F081D2B201E000F8012B491EFBD2704709
:100210000022F6E710B513460A4604461946FFF7D2
:10022000F0FF204610BD30B504460020034600E034
:100230005B1C934203D2E05CCD5C401BF8D030BD28
:10024000F0B480EA0102D40F4200B2EB410F02D2B7
:100250000246084611464A0042D0C30DDDB2C1F342
:10026000C752AD1A202D35DAC1F3160141F4000250
:1002700004B15242C5F1200602FA06F12A411044A7
:10028000B3EBD05F23D0C4B1012DA0EBC35009DC88
:10029000F0BC4FF0004202EAC352DBB200F50000AE
:1002A00000F0FDB9400000F1807000EBC350A0F1F8
:1002B000807040EAD170490009E0490841EAC07104
:1002C000A0EBC35000F50000400800EBC350F0BCA9
:1002D00000F0DCB96142012202EB4101001BF6E7AC
:1002E000F0BC704781F00041AAE780F00040A7E72A
:1002F00080EA010210B502F00043400022D04A001B
:100300001FD0010E01EB1261C0F35600C2F356027A
:1003100040F4000042F40002A0FB022000047F39F8
:10032000140400D0401C50EA124001D44000491E81
:10033000C2B20C0604EBD010401C4008802A02D048
:1003400003E0002010BD20F00100002900DA0020A9
:10035000184310BD30B480EA010202F0004530F0CD
:10036000004221F0004013D090B1C30DD40DC2F370
:100370001601C0F31600E41A41F4000140F4000233
:100380007D34914201D3641C00E04900002C02DA64
:1003900030BC002070474FF400000023914201D38D
:1003A000891A034340084FEA4101F7D151B1914204
:1003B00002D14FF0004105E002D24FF0010101E00F
:1003C0006FF0010103EBC450284430BC00F05EB96B
:1003D000420005D0C0F3C7525242914201DC0020D6
:1003E000704700EBC15070472DE9FE4F81EA0304CE
:1003F00004F0004421F0004100944FF0000B23F082
:10040000004350EA01045ED052EA03045BD0C3F318
:100410000A54C1F30A552C44A4F2F3340194A0FB0E
:100420000254C1F3130141F48011C3F3130343F4E5
:10043000801301FB024400FB034E840A970A44EA3E
:10044000815447EA8357A4FB076802958D0A05FB90
:1004500007854FEA932C04FB0C542705029D4FEAB5
:10046000065847EA1637B5EB08056EEB070C870E02
:10047000920E47EA811742EA8312A7FB0201B6EB0C
:100480000B0164EB00042B0D43EA0C335E1844EBC4
:100490001C50DA465146E7FB0201C5F313044FEA4C
:1004A0000B3343EA14534FEA0432019C43EA060338
:1004B000A4F10C040294009CCDE900B400F02CF9E6
:1004C00003B0BDE8F08F00200146F9E7C10F80EAD4
:1004D000E0700844CA079623002100F0E0B8962394
:1004E0000022114600F0DBB800F0004220F000408E
:1004F000C10DC0F3160040F400007F2901DA00208E
:100500007047962903DCC1F19601C84001E0963995
:100510008840002AF4D04042704720F00040C10DCE
:10052000C0F3160040F400007F2901DA0020704774
:10053000962903DCC1F19601C8407047963988407E
:10054000704770B5C1F30A5201F000450024C1F3B1
:10055000130140F2FF3341F480119A4201DA002086
:1005600070BD40F233439A42A2F2334203DC52425E
:1005700000F07CF800E090402C43F1D0404270BD88
:1005800000F0004230F000400AD0C10D01F560716A
:10059000C0F3160042EA0151C208400711437047F8
:1005A00000200146704701F0004330B421F00041C3
:1005B00050EA010206D00A0DA2F56072C1F31301E0
:1005C000002A02DC30BC00207047440F44EAC1041A
:1005D000C100E01830BC00EBC25000F057B830B595
:1005E0000B46014600202022012409E021FA02F5F1
:1005F0009D4205D303FA02F5491B04FA02F528448B
:10060000151EA2F10102F1DC30BD2DE9F05F0546B7
:10061000002092469B4688460646814640241BE0C1
:10062000284641464746224600F020F853465A469F
:10063000C01A914110D311461846224600F02AFAFA
:100640002D1A67EB01084F4622460120002100F0D9
:1006500021FA17EB00094E41201EA4F10104DFDC52
:10066000484631462A464346BDE8F09F202A04DB2F
:10067000203A21FA02F00021704721FA02F3D0401B
:10068000C2F1200291400843194670470029A8BFD3
:100690007047401C490008BF20F00100704710B4AB
:1006A000B0FA80FC00FA0CF050EA010404BF10BC60
:1006B000704749B1CCF1200421FA04F411FA0CF18D
:1006C00018BF012121430843A3EB0C01CB1D4FEAC6
:1006D00000614FEA102042BF002010BC704700EBC1
:1006E000C35010440029A4BF10BC7047401C4900EF
:1006F00008BF20F0010010BC704710B5141E73F144
:10070000000408DA401C41F1000192185B411A43D1
:1007100001D120F0010010BD2DE9F04D92469B461D
:1007200011B1B1FA81F202E0B0FA80F220329046C3
:1007300000F0B0F904460F4640EA0A0041EA0B0116
:1007400053465A46084313D0114653EA010019D0C4
:10075000C8F140025046FFF789FF05460E46504655
:100760005946424600F096F9084305D0012004E0BE
:1007700020463946BDE8F08D0020054346EAE07684
:100780002C4337430A986305E40AA0EB08000022D3
:10079000FD0A44EA47540A3002D500200146E9E741
:1007A000010510196941DDE9084500196941BDE8F5
:1007B000F04DA2E72DE9FE4F804681EA0300C00F0D
:1007C0000C46009021F0004123F00045B8EB0200F8
:1007D000A94105D24046214690461C460B4602469A
:1007E00023F00040104347D0270DC7F30A00C3F39E
:1007F0000A510290401A019040286BDAC3F31300AB
:1008000040F4801B0098924620B10023D2EB030AEB
:1008100063EB0B0B01985946C0F14002504600F0C3
:1008200039F906460D4650465946019A00F041F9FD
:1008300010EB08006141002487EA115284EAE77353
:100840001A4340D0009A62B3019A012A4FEA075234
:1008500015DC001B61EB02014FF0004202EA075277
:10086000CDE90042001C41F5801132462B46FFF7CE
:1008700053FF03B0BDE8F08F40462146F9E7001B67
:1008800061EB0201001C41F5801300185B41201848
:10089000A2F5001747EB030140EAD570B6196D4188
:1008A00011E06D084FEA360645EAC0754FEA075277
:1008B000001B61EB0201001C41F5801149084FEA61
:1008C00030000019514132462B4603B0BDE8F04FCD
:1008D000FFF713BF0098012240000023D0EB020273
:1008E00063EBE073009821464FEAE074B8EB000038
:1008F00061EB0401E9E783F000435BE781F000412D
:1009000058E72DE9F04D81EA030404F0004B21F093
:10091000004514464FF0000A23F0004150EA05025A
:1009200020D054EA01021DD0C5F30A570246C5F390
:100930001303C1F31300C1F30A5640F4801543F4C6
:100940008013A7EB0608101BD64608F2FD3873EBA0
:10095000050002D308F1010801E092185B41B8F1EB
:10096000000F03DA00200146BDE8F08D00204FF4AF
:100970008011064684460EE0171B73EB050705D36E
:10098000121B63EB050306434CEA010C49084FEACE
:10099000300092185B4150EA0107EDD152EA0300A2
:1009A00012D082EA040083EA0501084305D0101B37
:1009B000AB4106D20122002306E000224FF00043A3
:1009C00002E06FF0010253101AEB06004CEB0851E5
:1009D00010EB0A0041EB0B01BDE8F04DFFF78DBEB7
:1009E00070B521F0004303430CD0C1F30A55002435
:1009F000D5EB040564EB0403D617AD1AB34102DB53
:100A00000020014670BD201841EB025170BDC1F3BA
:100A10000A52C1F3130140F2FF3341F480119A42AC
:100A200002DA00200146704740F233439A42A2F2B4
:100A3000334202DC5242FFF719BE00F02BB800002F
:100A400030B5041E71F1000404DB4FF00044404255
:100A500064EB0101141E73F1000405DB1C464FF02A
:100A60000043524263EB0403994208BF904230BDF9
:100A7000064C074D06E0E06840F0010394E80700EB
:100A800098471034AC42F6D3FFF772FB3862000887
:100A900058620008202A04DB203A00FA02F1002004
:100AA00070479140C2F1200320FA03F319439040AC
:100AB0007047202A06DBCB17203A41FA02F043EABE
:100AC000E07306E041FA02F3D040C2F12002914007
:100AD0000843194670472DE9F04D00231A461B1AAA
:100AE0008A4103DB00200146BDE8F08DC1F30A52C4
:100AF000C1F3130141F480154FF0000BD10702D16F
:100B000000186D41521E0027044640F2FF1138467E
:100B100001EB620A3E468046024600204FF48011F7
:100B2000FFF7A4FDC2197141BB1846EB0100B4EBFD
:100B3000030C75EB000C04D3E41A65EB00051746B3
:100B40000E46241908F101006D4180463428E3DD8A
:100B5000F91946EB0600091BA84103D24FF0FF32FA
:100B6000134601E0002213461BEB070046EB0A5137
:100B7000BDE8F04DFFF7C1BDFEE77047FEE700F0AE
:100B800003B800F059B8000070B52A4C4FF48065E6
:100B90002946204602F01EFA18B12946204602F0E6
:100BA00010FA4FF400452946204602F013FA18B116
:100BB0002946204602F005FA4FF480452946204692
:100BC00002F008FA18B12946204602F0FAF94FF46B
:100BD00000652946204602F0FDF918B12946204655
:100BE00002F0EFF94FF400752946204602F0F2F9C1
:100BF00018B12946204602F0E4F94FF480752946E1
:100C0000204602F0E7F918B12946204602F0D9F94A
:100C10004FF480552946204602F0DCF918B12946E8
:100C2000204602F0CEF92046BDE870404FF4E06166
:100C300002F0BFB9005400402DE9F05F624801782E
:100C4000624FDFF88C81DFF88CA1634D634C644EFA
:100C50004FF000096FF0010B01290DD0007800283A
:100C60003CD195F900004FF001010028304653DBDC
:100C700002F0B0F928B939E00121304602F0AAF9B2
:100C800008B15A464CE00221304602F0A3F9002890
:100C90005BD18021304602F09DF900281ED095F9E5
:100CA0000000002806DD00BF98F80010304602F072
:100CB0006AF92DE0207898B14A4A106810F8011BB3
:100CC0001060304602F05FF92078401E207000204E
:100CD0004FF4FA71401C80B28842FBD3BDE8F09F0C
:100CE000304602F0F0F98AF8009066E002213046C2
:100CF00002F070F948BB8021304602F06BF9002801
:100D0000ECD095F900000028CEDC304602F0D6F990
:100D10002878401E2870E1E702F05CF930B101222A
:100D200039783046BDE8F05F02F070B902213046F4
:100D300002F050F978B12078012802D020780228FA
:100D400003D10021304602F093F83046BDE8F05F51
:100D5000022102F036B94021304602F03BF900286A
:100D6000BCD020780028B9D02078032809D10421EC
:100D7000304602F02FF90028F9D00021304602F069
:100D800077F8304602F0FCF817490246086800F888
:100D9000012B08602078401E2070207800289DD10B
:100DA000304602F090F98AF800900121304602F0B6
:100DB0005FF80121304602F065F83046BDE8F05F8B
:100DC0004FF4E06102F0F5B8290000202B0000206C
:100DD0002A000020280000202D0000202C000020E8
:100DE000005400403000002034000020FEE770472F
:100DF0000907090E002806DA00F00F0000F1E020D4
:100E000080F8141D704700F1E02080F8001470474E
:100E10007047704710B504F09DFABDE8104001F02E
:100E200087B800001448016841F0010101600168C1
:100E30008907FCD54168114A114041604168104A58
:100E400011404160416821F44001416001680D4A50
:100E500011400160C16A21F00F01C162016B40F2D3
:100E6000431291430163416B21F001014163002171
:100E7000816004F027BA0000001002400C00FF0857
:100E8000FFFFC277FFFFF2FEFEE700000FB4054B45
:100E900010B503A9044A029800F05CF910BC5DF893
:100EA00014FB0000FD26000868000020490050EAFD
:100EB000C12018BF04204A0D18BF40F0010040F2C5
:100EC000FF72B2EB515F08BF40F00200012808BF7B
:100ED000052070472DE9F0414F1E00EBC701044685
:100EE000D1E9000115461E4637F006020DD02A460C
:100EF0003346FFF779FA7F1E04EBC703D3E90023DB
:100F0000FFF758FC37F00602F1D1022F25D0042F4D
:100F100013D0062F18BFBDE8F0812A463346FFF7ED
:100F200063FAD4E90A23FFF745FC2A463346FFF764
:100F30005BFAD4E90823FFF73DFC2A463346FFF766
:100F400053FAD4E90623FFF735FC2A463346FFF768
:100F50004BFAD4E90423FFF72DFC2A463346FFF76A
:100F600043FAD4E90223FFF725FC2A463346FFF76C
:100F70003BFAD4E90023BDE8F041FFF71BBC012296
:100F8000FFF72EBDFFF716BC002213461046114690
:100F9000FFF7B7BC024A00201107FFF721BD000090
:100FA00001FDFFFF02E008C8121F08C1002AFAD1A4
:100FB00070477047002001E001C1121F002AFBD1D9
:100FC0007047000001490860704700006C00002075
:100FD0002DE9FF5F82B00021DDE90430020DDDF86C
:100FE00040B0034318D044F61050A2F2FF324243FF
:100FF0001514119801281FD0A5EB0B00401C5FEAC7
:10100000000A4FF000064E4FDFF83891B0465046C8
:1010100015D5CAF1000413E0119801244AA3012850
:1010200001D16FEA0B010298119AC0E90031C0E9C1
:10103000024206B0BDE8F09FCBF10000DFE70446B6
:101040000021404A491842EB0450CDE9001012E05B
:10105000E00707D032463B4640464946FFF7C4F911
:101060008046894632463B4610461946FFF7BCF992
:1010700006460F466410002CEAD1DDE90401DDE9E3
:101080000023BAF1000F06DAFFF7AEF942464B46ED
:10109000FFF7AAF905E0FFF734FC42464B46FFF79D
:1010A00030FC04460E460022284BFFF7C9FC03D84B
:1010B0004FF0FF30014607E00022254B2046314625
:1010C000FFF778FBFFF7A3FC102409E0002C0ADBF4
:1010D0000A220023FFF799FA039B30321A55641E47
:1010E00050EA0102F2D1641C039AC4F111031444C2
:1010F000119A012A03D0012208430DD10AE00843C6
:1011000004D000204FF0110B119072E7A3EB0B05F8
:101110006D1E0DE05B4504DD4FF0000205F1010599
:1011200004E003DA4FF00002A5F10105002AECD03B
:1011300002981199C0E90231C0E9004579E7000041
:10114000000014400000F03F300000000000F043B9
:101150000000E03F2DE9FF4F95B09B4689460646CB
:1011600000250FE2252877D100242746F84A0121DF
:10117000059400E0044316F8013F203B01FA03F018
:101180001042F7D130782A2811D06FF02F03307831
:10119000A0F13002092A16D8059A44F0020402EBA5
:1011A000820203EB42021044761C0590EFE759F8E7
:1011B000042B0592002A03DA504244F400540590AF
:1011C00044F00204761C30782E2816D116F8010F50
:1011D00044F004042A280DD06FF02F023078A0F1DB
:1011E0003003092B09D807EB870302EB4303C71829
:1011F000761CF3E759F8047B761C30786C280FD006
:1012000006DC4C2817D068280DD06A2814D104E0D9
:10121000742810D07A280FD10DE044F400140AE0AD
:1012200044F4801401E044F440147278824202D104
:1012300004F58014761C761C307866280BD013DCFD
:10124000582877D009DC002875D04528F6D04628E4
:10125000F4D047281AD19DE118E0632835D06428DE
:1012600079D0652812D195E1702873D008DC672801
:10127000F1D069286FD06E280DD06F2806D1B5E067
:1012800073282CD0752875D0782874D05A461799B1
:1012900090476D1C75E1C4F30250022809D0032861
:1012A0000DD0D9F8001004280DD00D6009F1040903
:1012B00067E1D9F80010EA17C1E90052F6E7D9F85A
:1012C00000100D80F2E70D70F0E719F8041B8DF89F
:1012D000001000208DF80100EA46012003E059F8D3
:1012E00004AB4FF0FF3061074FF0000102D40DE076
:1012F00008F101018846B9420FDA8045F8DB1AF897
:1013000008100029F4D108E008F101018846814263
:10131000FADB1AF808100029F6D105985B46A0EB15
:10132000080721463846179A00F094FA284400EB43
:10133000080507E04DE029E10DE01AF8010B5A46D7
:1013400017999047B8F10108F7D25B462146384615
:10135000179A13E142E00A220092C4F302524FF0BE
:10136000000A022A08D059F804CB032A4FEAEC718C
:101370000AD00DE029E02AE009F1070121F0070277
:10138000F2E802C1914609E00FFA8CFC4FEAEC71D9
:10139000042A03D14FFA8CFC4FEAEC71002907DADA
:1013A0000A460021DCF1000C61EB02012D2202E073
:1013B000220504D52B228DF80420012203E0E20748
:1013C00001D02022F7E7904659E00A2102E01022DE
:1013D0000DE010214FF0000A00910BE010224FF0B9
:1013E000000A44F004040827009203E008224FF0AA
:1013F000000A0092C4F30252022A05D059F804CB25
:101400000021032A08D009E009F1070121F00702B1
:10141000F2E802C1914605E01FFA8CFC042A01D1D2
:101420000CF0FF0C4FF00008220728D5702806D0DA
:10143000009B83F0100353EA0A0305D00EE040221C
:101440008DF80420012208E05CEA010206D0302277
:101450008DF804208DF8050002229046009B83F051
:10146000080353EA0A030AD15CEA010201D16207C8
:1014700005D530228DF804204FF001087F1E582832
:1014800004D034A003900EA802900DE036A0F9E736
:1014900053466046009AFFF7B8F884460398825C8A
:1014A0000298401E029002705CEA0100F0D102989E
:1014B00006A9081A00F1200A600702D524F4803436
:1014C00000E00127574502DDA7EB0A0000E00020FD
:1014D00000EB0A01009005984144401A0590E00392
:1014E00006D45B462146179A059800F0B3F90544E7
:1014F000002706E001A85A46C05D179990476D1C69
:101500007F1C4745F6DBE0030CD55B462146179A66
:10151000059800F09FF9054404E030205A461799D9
:1015200090476D1C0099481E00900029F5DC08E0EA
:10153000029802995A460078491C029117999047DF
:101540006D1CBAF10001AAF1010AF1DC65E10000AD
:101550000928010030313233343536373839616289
:10156000636465660000000030313233343536374D
:1015700038394142434445460000000000F058F924
:101580000544761C307800287FF4ECAD19B028466D
:10159000BDE8F08F620700D4062709F1070222F0A8
:1015A000070CFCE80223E14603F000485FEA080C60
:1015B00002D00FF2702C0DE05FEA045C02D50FF24E
:1015C000682C07E05FEAC47C02D00FF2602C01E0D7
:1015D000AFF2700C4FF0FF3823F00043CDF850C04D
:1015E00065280CD006DC452809D046281DD04728A0
:1015F0003DD13DE0662818D067287ED138E0002133
:10160000112F01DB112000E0781CCDE9000106A9B3
:101610000EA8FFF7DDFCDDE90F010E9A0391002112
:10162000009207F1010A04914DE04FF0004000974D
:10163000CDE9011006A90EA8FFF7CAFCDDE90F02EB
:1016400003920E9B11990022DDF80CA000930492E6
:1016500011B9791C00EB010AB7EB0A0004D4C0F100
:10166000FF3007F1010A0490AAEB0700019044E063
:10167000012F00DA01270021112F01DD112000E0E8
:101680003846CDE9000106A90EA8FFF7A1FCDDE967
:101690000F010E9A0391002104910092BA4621078E
:1016A0000CD40399514500DA8A46BAF1010F05DDE1
:1016B000009AAAF10101515C302908D0B84202DA3F
:1016C00010F1040F06DA0121CDE9011015E0AAF1AD
:1016D0000101E9E7002805DC049901440491AAEB23
:1016E000000102E0411C514500DD8A460499401A80
:1016F000401C01904FF000400290200704D4019854
:10170000504501DBCDF8048000208DF84F00029891
:101710000DF14F07B0F1004F25D02B200E9002980D
:101720004FF0020800280CDA404202902D200E9063
:1017300007E00A210298FEF752FF3031029007F8C5
:10174000011DB8F10001A8F10108F2DC029800289F
:10175000EFD1791E0E980870307800F0200040F02C
:10176000450007F8020D12A8C01B00F107081498E5
:10177000007800B1012000EB0A01019801EBE07153
:1017800005984144401A401E0590E00306D45B468C
:101790002146179A059800F05DF8054414980078E2
:1017A00018B15A46179990476D1CE00324D55B4643
:1017B0002146179A059800F04DF805441CE004985E
:1017C000002807DBDDE90301884203DD0098405C67
:1017D000179901E0179930205A469047049805F16F
:1017E0000105401C04900198401E019004D12E2058
:1017F0005A46179990476D1CBAF10001AAF1010AE7
:10180000DDDC05E017F8010B5A46179990476D1C6F
:10181000B8F10001A8F10108F4DC5B462146179AF3
:101820000598ABE62D0000002B0000002000000012
:101830002DE9F041044600251E461746880404D4CD
:1018400005E039462020B0476D1C641EF9D52846B6
:10185000BDE8F0812DE9F041044600251E46904682
:10186000C80301D5302700E02027880404D505E00F
:1018700041463846B0476D1C641EF9D52846BDE880
:10188000F08100002DE9FE4F07460E460025684610
:1018900000F048FF00246FF00F0AE8464FF00109FE
:1018A00057F8240056F82410401A00D54042FEF79D
:1018B0000DFE5146FEF78CFD58F8241011F0FF4F35
:1018C0000BD0FEF747FD4FF07E51FEF70BFD0A49A6
:1018D00020F00040884205DC07E008490844084938
:1018E000884202D309FA04F00543641C032CD7DBB9
:1018F0002846BDE8FE8F0000295C0F3E666666C183
:101900009A99D9002DE9F04D8D4F21F0004A86B00B
:1019100005460C46BA452ADBAAEB070028430AD045
:101920008848824501DC1AD1CDB106B02846BDE811
:10193000F04DFFF724BB844A844B2846FEF754FD44
:1019400007460E46824A834B28462146FEF74CFD49
:1019500006B03A463346BDE8F04DFEF72BBF0120F6
:10196000FFF730FB06B0BDE8F04DFFF70DBB7A483E
:10197000824542DABAF1795F0BDA2846FFF796FA28
:10198000042808BFFFF706FB284606B02146BDE83D
:10199000F08D2A460B461046FEF726FD834602468A
:1019A0006E480E460B4606217844FFF793FA5A46D6
:1019B0003346FEF719FD804669488A465A46334643
:1019C00004217844FFF786FA5A463346FEF70CFDA9
:1019D00000223B46FEF7EEFE02460B4640465146CD
:1019E000FEF78FFF2A462346FEF7FEFC06B02A4686
:1019F0002346BDE8F04DFEF7DDBE284624F0004149
:101A000000223D463B46FEF779FF4FF0FF32FEF7DE
:101A1000E7FF0646024653480F460B460621784428
:101A2000FFF758FA32463B46FEF7DEFCCDE90001EF
:101A30004D4832463B4604217844FFF74BFA324684
:101A40003B46FEF7D1FC00222B46FEF7B3FE834651
:101A500002913046394603F00FFC804643480D465C
:101A6000504517DCDDE900015A46029BFEF749FFAD
:101A700042462B46FEF7B8FC42462B46FEF79AFE3E
:101A80000122FEF7ADFF304A304BFEF734FF304AFB
:101A9000304B4CE04FF0000A52460B464046FEF7F2
:101AA00089FECDE9031052462B4610461946FEF733
:101AB0009BFC32463B46FEF721FFDDE90332FEF791
:101AC00020FF06460F46DDE900015A46029BFEF75D
:101AD00018FF83460091012230463946FEF780FF09
:101AE000194A1A4BFEF70AFF06460F4601224046E6
:101AF0002946FEF775FF5A46009BFEF775FC3246F5
:101B00003B46FEF7F8FE06460F46012250462946A0
:101B1000FEF766FF0E4DDFF858802A464346FEF773
:101B2000EDFE32463B46FEF7E9FE2A464346FEF707
:101B3000E5FE002CD8BF81F0004106B0BDE8F08D75
:101B40000000F03F0000F07F075C143326A6913CB4
:101B5000182D4454FB21F93F0000E03F9C47000052
:101B6000B2470000264700003C4700003333EF3FF8
:101B7000FB21E93F2DE9F84F04460D4621F00040D6
:101B800000917349814211DC7249884201DC06D11F
:101B90002CB120462946BDE8F84FFFF7F0B96E4852
:101BA000002DCCBF6D496E49BDE8F88F6D4981426B
:101BB00011DD6D498142D8BF4FF0FF366DDD204603
:101BC0002946FFF773F9042808BFFFF7E3F9204619
:101BD0002946BDE8F88F6549654F25F000458142EB
:101BE00033DD6449814219DD002632464FF08043DF
:101BF00020462946FEF7DEFD80468A460122204621
:101C00002946FEF7EDFE00223B46FEF774FE4246F3
:101C10005346FEF776FE04460D463EE001260022BE
:101C2000BA463B4620462946FEF7C4FD80460F468D
:101C30000022534620462946FEF75DFE42463B46BB
:101C4000FEF75FFE04460D4627E04B4981421BDD4F
:101C5000DFF828A102260022534620462946FEF737
:101C6000C3FB00223B46FEF7A5FD80460F4600223F
:101C7000534620462946FEF73EFE42463B46FEF7C7
:101C800040FE04460D4608E0032622462B4600206F
:101C90003B49FEF736FE04460D4622462B461046CB
:101CA0001946FEF7A1FB8B46824602460B46FEF71D
:101CB0009BFB07460246334888460B46062178447C
:101CC000FFF708F952465B46FEF78EFB82462E4828
:101CD0008B463A46434605217844FFF7FBF83A46DF
:101CE0004346FEF781FB02460B46002E50465946FE
:101CF0000CDAFEF75FFD22462B46FEF775FB01B0BE
:101D000022462B46BDE8F04FFEF7F8BDFEF752FD28
:101D100022462B46FEF768FB1C4A7A4402EBC603B8
:101D2000D3E90023FEF7E7FD22462B46FEF7E3FD4D
:101D3000174A7A4402EBC603D3E90023FEF7DEFD1F
:101D4000009A002AB8BF81F00041BDE8F88F00007A
:101D5000000010440000F07F182D4454FB21F93F8F
:101D6000FB21F9BF0000DC3F0000203E0000F33FF4
:101D70000000F03F0000E63F008003400000F83F15
:101D80000000F0BF3E450000FC4400009A44000003
:101D9000624400002DE9F04D9446CCF1000423F09C
:101DA00000464CEA0404524F46EAD4749A468846E8
:101DB00021F00042BC4206D8454240EA050442EA0E
:101DC000D474BC4204D9BDE8F04D6246FFF7DAB8DE
:101DD000AAF14055A5F17F6555EA0C040BD0022409
:101DE00004EAAA74434DDFF810E144EAD87452EAD9
:101DF000000B04D00CE0BDE8F04DFFF7BBBE002C9B
:101E000014BF012CBDE8F08D022C30D0032C32D051
:101E100056EA0C0B0AD0BE4220D1BA4209D126F0B4
:101E2000804622F080423346114617E000291ADB33
:101E300025E0DFF8C8B0FB44002C04BFDBE900015B
:101E4000BDE8F08D012C02BFDBE9000181F000410B
:101E5000BDE8F08D022C0AD0032C0CD0BA4212D16E
:101E6000B8F1000F0BDA23482549BDE8F08D28466C
:101E70002449BDE8F08D28467146BDE8F08D1D4827
:101E80002149BDE8F08D921B12153C2AC4BF1948A8
:101E90001D490EDCBAF1000FBEBF12F13C0F00204D
:101EA000014606DB6246FEF72CFD21F00041FFF7FC
:101EB00061FE002C08BFBDE8F08D012C04BF81F04D
:101EC0000041BDE8F08D114A114B022C07D0FEF7FE
:101ED00012FD2A46BDE8F04D0A4BFEF70CBDFEF799
:101EE0000AFD2A46BDE8F04D064BFEF707BD00008F
:101EF0000000F07F182D4454FB2109C0F643000078
:101F0000FB21F9BFFB210940FB21F93F075C14339A
:101F100026A6A13C014601A0FEF7B8BF257300002C
:101F20000249486048680028FCD170472000002022
:101F300003484168002902D04168491E416070474A
:101F40002000002008B560B120208DF80000282076
:101F50008DF8010030208DF8020038208DF8030044
:101F600004E0A32204216846FEF74BF96A460421E7
:101F700040F69E2002F0FAFF02F088FB08BD000048
:101F80003EB5044602208DF80000CA208DF80100FD
:101F9000E3208DF8020009208DF803006A46042131
:101FA000682002F0E3FFA3208DF80000610609D548
:101FB000C0218DF80110C8218DF80210C2218DF8C2
:101FC000031005E08DF801008DF802008DF8030084
:101FD00014F4C07F09D0C4218DF80410CC218DF8F1
:101FE0000510C6218DF8061005E08DF804008DF867
:101FF00005008DF806008DF808008DF807008DF8B3
:1020000009006A460A2140F6A72002F0AFFFA007A8
:102010004FF0D80503D020208DF8000001E08DF8A6
:1020200000506A46012140F6B62002F09FFFA0064C
:1020300001D5012000E0002000F08EF814F4C07FEC
:102040001ED0E0050AD5B2208DF800008B208DF857
:102050000100B6208DF802009B2009E0B0208DF829
:10206000000080208DF80100B4208DF8020090203F
:102070008DF803006A46042140F6A22002F076FFA4
:10208000E1074FF40B6022D0F8218DF800106A466A
:10209000012102F06BFFFA21072000F07BFA0720F4
:1020A00000F047FA012000F064FA642000F006FB1B
:1020B0004FF4FA7000F012FBC821254800F001FA35
:1020C000282000F016FA0A2000F023FA05E08DF827
:1020D00000506A46012102F049FFA00703D5D9202C
:1020E0008DF8000001E08DF800506A46012140F2B1
:1020F0003D7002F03BFF600701D5012000E00020A9
:1021000000F048F8E00601D5012000E00020FFF7CC
:1021100019FF104D44F00800688102F0B7FA002062
:10212000A873600601D50620A87314F4C07F02D0FE
:10213000A87B801DA87314F0140F02D0A87B103068
:10214000A873A00702D0A87B001DA87300203EBD85
:1021500009E3CA02C00000200EB54FF4976310B126
:1021600006A107C901E008A207CA8DE807006A4670
:102170000921184602F0FAFE0EBD0000B8AAB38D80
:10218000B4980D355D000000B8AAAAAAB088C3C5EE
:10219000C700000008B560B1C0208DF80000C22063
:1021A0008DF80100C4208DF80200C6208DF80300D0
:1021B00004E08B2204216846FEF723F86A460421D6
:1021C00040F6982002F0D2FE02F060FA08BD00004E
:1021D000024989890180002070470000C00000206A
:1021E00038B504004FF0FF3506D06A4604214FF49D
:1021F000587002F0F3F908B1284638BD00989DF8F0
:10220000031000BA20F0FF0008432060002038BD12
:1022100038B504004FF0FF3506D06A4604214FF46C
:10222000717002F0DBF908B1284638BD00989DF8BE
:10223000031000BA20F0FF00084300EB800080008C
:102240002060002038BD0000C8234FF4806202499E
:1022500040F6F63001F066BF505500082DE9FF4FFB
:1022600089B01746DDE9165200244C4E8846814657
:102270002C80A246B07B694602F068F94FF0FF3B24
:1022800018B158460DB0BDE8F08F708910F0140FEA
:102290003CD0009909BA21F0FF039DF803100B43CD
:1022A0003B6001991B1409BA21F0FF029DF8071049
:1022B0005B430A437A6002999DF80B4009BA21F00A
:1022C000FF012143B960039C091424BA24F0FF0CD8
:1022D0009DF80F4012144CEA040CC7F80CC04FEAEA
:1022E0002C47494302FB023207FB0711114410241B
:1022F000A1F17061B1F1007F04D902F0C7F9A5F82E
:1023000000A0BEE7298841F4807129804206694611
:1023100011D50A19A41D13885BBAA8F80030538898
:102320005BBAA8F80230928852BAA8F804202A882A
:1023300042F008022A8010F4C07F11D00A19A41DAF
:1023400013885BBAA9F8003053885BBAA9F8023049
:10235000928852BAA9F804202A8842F070022A8092
:10236000800716D00C44E07800F0C00500F03F0173
:102370006078C00706D0C80801F007013268491C20
:1023800002B190476078000703D5716809B1A809C8
:1023900088470C9800F0A6FB002073E7C0000020DF
:1023A0000149486000207047C000002001490860D2
:1023B00000207047C000002030B5044613A285B04D
:1023C00007CA8DE807004FF0FF35C82C16D8C82083
:1023D000B0FBF4F1491E080A8DF80C008DF80D10C1
:1023E00003AA022140F2162002F0C0FD30B96A466D
:1023F0000C2140F6C12002F0B9FD10B1284605B00D
:1024000030BD054884810020F9E70000FEF2ABC42E
:10241000AAF1DFDFBBAFDFDFC000002000B50EA1F7
:1024200087B00EC98DE80E000EA10DF10C0C0EC97F
:102430008CE80E0040F68223012807D0022803D042
:102440004FF0FF3007B000BD6A4600E003AA0B2141
:10245000184602F08BFDF5E7D8B1B9F38BA391B61E
:1024600009B4D900DAB1B9F38BA391B6DAB4DA00C2
:1024700008B5010E8DF80010010C8DF80110010A4D
:102480008DF802108DF803006A4604214FF458704D
:1024900002F06CFD08BD1421B0FBF1F008B5010E8F
:1024A0008DF80010010C8DF80110010A8DF8021052
:1024B0008DF803006A4604214FF4717002F056FD56
:1024C00008BD4FF47A7290FBF2F008B54843010E54
:1024D0008DF80010010C8DF80110010A8DF8021022
:1024E0008DF803006A4604214FF4AE7002F03EFD01
:1024F00008BD0521B0FBF1F008B5010A8DF8001008
:102500008DF801006A4602214FF4AD7002F02EFDF5
:1025100008BD0521B0FBF1F008B5010A8DF80010E7
:102520008DF801006A4602214FF4AC7002F01EFDE6
:1025300008BD08B500218DF80010C10702D0302178
:102540008DF80010810705D59DF8001041F00C01B1
:102550008DF80010400705D59DF8000040F00300FD
:102560008DF800006A4601214FF4A47002F0FEFCD1
:1025700008BD08B560B1042800D90420401E8DF8BC
:1025800000006A46012140F24F1002F0EFFC08BD46
:102590000120F3E72DE9FC41054640074FF0FF36E7
:1025A0007CD0B1F5C86F79D80846FDF798FF3E4951
:1025B000FDF7D0FE074601A801F05AF89DF8040087
:1025C000022806D004280DD008282ED0102865D166
:1025D00034E00E213846FDF7FBFEFDF79EFF84B286
:1025E000324907E00D213846FDF7F2FEFDF795FF71
:1025F0002F4984B23846FDF77BFEFDF78EFF210A96
:102600008DF8001080B28DF80140010A8DF802109B
:102610008DF80300E8076C4620D0224602214FF4D3
:10262000EA7002F0A3FCC8BB11E00C213846FDF7AC
:10263000CFFEFDF772FF84B21E49DBE70B2138465F
:10264000FDF7C6FEFDF769FF84B21B49D2E7A21C65
:1026500002214FF4927002F089FCF8B9A8070DD559
:102660006A4602214FF4EC7002F080FCB0B9A21C63
:1026700002214FF4947002F079FC78B9680710D504
:102680006A4602214FF4EE7002F070FC30B9A21CD1
:1026900002214FF4967002F069FC10B13046BDE89B
:1026A000FC810020FBE7000000004843000040469A
:1026B0000000C045000040450000C0440521B0FBBB
:1026C000F1F008B5010A8DF800108DF801006A4696
:1026D00002214FF4EF7002F049FC08BD0521B0FB68
:1026E000F1F008B5010A8DF800108DF801006A4676
:1026F00002214FF4ED7002F039FC08BD70B5084DB1
:102700000446C1B2284602F0BDFE40F207763146CB
:10271000284602F0D8FE0028F9D0204670BD0000FF
:10272000004400402DE9FE430646264801AB042242
:1027300040680D21007800F091FC10B10720BDE841
:10274000FE839DF804101C2000EAD1029DF80710BA
:10275000DFF87490C1F301131A438DF800209DF83F
:102760000520C1F3810300EAD2021A438DF801204B
:102770009DF8062001F0030100EAD200084300247E
:10278000124F8DF80200A0466D46285D10B146F844
:1027900024900AE046F824800DE000BF56F824009B
:1027A0003946FDF7A5FD46F82400285D401E10F0CF
:1027B000FF002855F2D1641CE4B2032CE5D30020BD
:1027C000BDE700003C0000207B14AE3E1D5A843F54
:1027D0002DE9FE4F05460120C14E8DF800004FF057
:1027E00000088DF8018030680C461746417D7068FE
:1027F0006B460222007800F06BFC4FF0FF3A002895
:102800007AD1C820FFF78CFB8DF8008030686B46CA
:102810000122417C7068007800F05AFC0028EFD15A
:1028200030686B46012241797068007800F050FCF6
:102830000028E5D130686B460122417D7068007840
:1028400000F046FC0028DBD130686B460122817E17
:102850007068007800F03CFC0028D1D130686B46ED
:10286000012201797068007800F032FC0028C7D19D
:102870004FF00C098DF8009030686B460122017909
:102880007068007800F024FC002835D10F20FFF795
:1028900047FBB06A6B460122407A8DF80000306831
:1028A00081787068007800F013FC002824D1B06AA9
:1028B0006B460122007A8DF800003068417870681C
:1028C000007800F005FC002873D1B06A807A0FB15F
:1028D00040F0E0008DF8000030686B4601228179FD
:1028E0007068007800F0F4FB002862D12FB1B06A64
:1028F000C07A40F0E00001E04AE018208DF80000C6
:1029000030686B460122C1797068007800F0E0FB06
:10291000F0BB17B1C820FFF703FB40208DF8000083
:1029200030686B46012201797068007800F0D0FBB6
:1029300070BB78208DF8000030686B460122417929
:102940007068007800F0C4FB10BB3220FFF7E8FA93
:102950008DF80080306847466B46417970680122E7
:10296000007800F0B5FB98B931687068B046097B13
:1029700000786B46022200F071FB48B9BDF80000F8
:10298000AF6040BAB0FBF9F06F60C6B22F6000E0F4
:102990000FE0A76067602760002739E0D8F80010D3
:1029A000D8F804006B46497B00780C2200F056FBF7
:1029B00010B15046BDE8FE8FBDF80000236840BA54
:1029C00002B2BDF80200BDF804101A44226040BAF9
:1029D000626800B21044606049BAA06809B2084455
:1029E000A060BDF806002B6840BA02B2BDF808002E
:1029F0001A4440BA01B2BDF80A002A606A6840BAB7
:102A000011446960A96800B208447F1CFFB2A86045
:102A1000B742C3D328688322C117090441EA104191
:102A200000040023FDF7BCFB32460023FDF7B8FB92
:102A3000286068688322C117090441EA1041000434
:102A40000023FDF7ADFB32460023FDF7A9FB6860CC
:102A5000A8688322C117090441EA10410004002339
:102A6000FDF79EFB32460023FDF79AFBA860206825
:102A70004FF40065C117090441EA104100042A46D9
:102A80000023FDF78DFB32460023FDF789FB206014
:102A900060682A46C117090441EA10410004002376
:102AA000FDF77EFB32460023FDF77AFB6060A068ED
:102AB0002A46C117090441EA104100040023FDF72A
:102AC0006FFB32460023FDF76BFBA060002802DDA0
:102AD000A0F5803001E000F58030A060002069E7BB
:102AE0003C00002001490968016070472000002077
:102AF000F0B5036A446A002501260F2706FA05FC93
:102B00001CEA020F09D04FEA850C07FA0CFE23EAF3
:102B10000E0301FA0CFE4EEA03036D1CADB2082D44
:102B2000ECD3082506FA05FC1CEA020F0BD04FEA8D
:102B3000850CACF1200C07FA0CFE24EA0E0401FA15
:102B40000CFE4EEA04046D1CADB2102DEAD30362F4
:102B50004462F0BD81627047816170472DE9F047A2
:102B600040F21156304602F031FB771C384602F035
:102B70002DFB01234FF0904800221946404600F0FB
:102B8000CAF8DFF880914FF4007423460022012137
:102B9000484600F0C0F865102B4600220121484647
:102BA00000F0B9F8202300220121484600F0B3F8D4
:102BB000102300220121484600F0ADF80123032232
:102BC0000021404600F0CAF823460322002148466F
:102BD00000F0C4F82B4603220021484600F0BEF85E
:102BE000202303220021484600F0B8F810230322D6
:102BF0000021484600F0B2F801214046FFF7AAFF45
:102C000021464846FFF7A6FF29464846FFF7A2FFA0
:102C100020214846FFF79EFF10214846FFF79AFF04
:102C2000304602F0D3FAB41C204602F0CFFA00225C
:102C300010231146404600F06EF8AB01324D0022E1
:102C40001146284600F067F8384602F0BFFA40F215
:102C5000157002F0BBFA402201214846FFF748FFF9
:102C6000802201214846FFF743FF40230122022131
:102C7000484600F050F8402303220121484600F066
:102C80006DF8802301220221484600F044F8802399
:102C900003220121484600F061F8304602F096FA1E
:102CA000384602F093FA204602F090FA00224FF4E0
:102CB00000431146284600F02EF80223002201218D
:102CC000404600F028F84FF480642346002201219A
:102CD000484600F020F8022303220021404600F07D
:102CE0003DF8234603220021484600F037F8022130
:102CF0004046FFF72FFF21464846BDE8F047FFF763
:102D000029BF00000004004800080048006908408E
:102D100000D0012070472DE9F047894601689246AE
:102D2000C268002401274FF0030C07FA04F51D4286
:102D30000BD066000CFA06F5A943AA4309FA06F877
:102D40000AFA06F548EA01012A43641CA4B2102CD1
:102D5000EBD30160C260BDE8F0870000F0B5012947
:102D6000416819D0994341608168002401274FF0E0
:102D7000030C00BF07FA04F61E4207D066000CFAE7
:102D800006F521EA050502FA06F12943641CA4B2FE
:102D9000102CEFD38160F0BD1943E4E72DE9F84F23
:102DA00081462E488846002540686B4603220078FD
:102DB0000D2100F053F910B10720BDE8F88F9DF800
:102DC0000000002400F01F008DF800009DF80100B5
:102DD0006FF00F0B00F01F008DF801009DF802004E
:102DE0006E4600F01F008DF802004FF0010A00BF90
:102DF00059F8241058F82400081A00D54042FDF76D
:102E000065FB5946FDF7E4FA0746305DC0B114484A
:102E100002E01449FDF76CFA315D491E11F0FF0123
:102E20003155F6D101463846FDF794FA4FF07E5100
:102E3000FDF758FA0C4920F00040884205DC07E015
:102E40000A483844B0F1D97F02D90AFA04F00543A0
:102E5000641C032CCCDB2846AFE700003C000020BC
:102E60000000C84154E3853F295C0F3E0000E0BEEE
:102E70000129016803D021F480610160704741F4A9
:102E80008061FAE70029016803D021F40061016044
:102E9000704741F40061FAE770B5044616460D46E6
:102EA000022002F0DDF8254BB0FBF3F13F2900D3FF
:102EB0003F21626822F03F020A436260204A954245
:102EC00010D8B0FBF3F1491C3F2900D33F21216208
:102ED0006900B0FBF1F0042800D20420E169C0F3DE
:102EE0000B0028E0174A954227D84FF496725143B9
:102EF0004FF47A72B1FBF2F1491C216266B105EB25
:102F0000C50101EB0511B0FBF1F0E16941F480412D
:102F1000E161010508D009E005EB4501B0FBF1F0E6
:102F2000E16921F48041F3E740F00100E16941F4F7
:102F30000041E161E1690143E16170BD40420F0080
:102F4000A0860100801A060010B50C4C4FF4804298
:102F500009492046FFF7A0FF0022242311462046FE
:102F600000F05DF8204600F010F82046BDE8104063
:102F70000121FFF77DBF0000801A060000540040C9
:102F80000069C0B2704701617047016841F00101FA
:102F900001607047024601F00043002089B2B3F19E
:102FA000004F04D052690A4200D001207047926954
:102FB000F9E742688A434260704742680A434260C8
:102FC0007047022903D042698A43426170474169D0
:102FD0008069704710B5426802F40073426811F0CE
:102FE000FF0F02F4807206D02BB1CA0607D14268E7
:102FF00002F4806202E011F47F4F05D022B14069F3
:10300000084000D0012010BD002010BD921C03D04C
:1030100041F001010161704721F00101FAE710B5AB
:10302000046824F002040C4304601A43826010BD5B
:1030300010B54FF4C06002F009F8032200211720F8
:1030400001F0BEFF02220021BDE81040202001F067
:10305000B7BF1346012200F001B8000070B5144C50
:1030600000256570FF2525704000E070A170E360C9
:103070002271012060710F4D4FF4E0612846FFF787
:103080009CFF2079022803D100212846FFF7FAFE91
:10309000094E28463146FFF77DFF0028F9D1284622
:1030A00000F00CF820790028FCD194F9000070BDE4
:1030B000280000200054004002000080016841F414
:1030C000807101607047016841F4007101607047D0
:1030D00070B5104C01256570FF2626704000E07029
:1030E000A170A360227165710B4D4FF4E061284619
:1030F000FFF763FF094E28463146FFF74BFF0028D4
:10310000F9D12846FFF7DAFF20790028FCD194F99D
:10311000000070BD28000020005400400200008024
:103120002DE9F0472E4D814600274FF090444FF493
:1031300080784FF4007601212046FFF70DFD4146CF
:103140002846FFF707FD4846FEF7EAFE31462846C7
:10315000FFF702FD01212046FFF7FCFC4846FEF781
:10316000DFFE41462846FFF7F7FC31462846FFF7C9
:10317000F1FC4846FEF7D4FE7F1C062FDBDB002760
:1031800001212046FFF7E8FC31462846FFF7E4FC22
:1031900041462846FFF7E0FC20212846FFF7DCFCEB
:1031A00010212846FFF7D8FC4846FEF7B9FE01215A
:1031B0002046FFF7CFFC31462846FFF7CBFC4146BF
:1031C0002846FFF7C7FC20212846FFF7C3FC102143
:1031D0002846FFF7BFFC7F1C022FD1DBBDE8F0873C
:1031E0000004004802F096F8FFF7B8FC424E4FF496
:1031F0001641304602F0E4F8FFF7A6FEFFF718FF8D
:103200006420FFF78DFF00F095F93C4C002500B1DC
:103210002570682000F078FBDFF8E4A040F2057B21
:103220004FF032084FF4804901270120FEF778FE65
:10323000207801280BD001214FF09040FFF78CFC43
:103240005946304602F03FF9012804D012E04FF40D
:1032500000715046F2E7304602F010F9C1B26170D9
:103260000A2907D00D2905D026A0FDF70FFE6078AA
:1032700000F04AFB2078012801D100F017FA6268BB
:10328000B2FBF8F108FB112020B92078012801D108
:1032900000F0F4FF10214FF09040FFF737FD58B1D8
:1032A000A77020215046FFF757FC1AA0FEF732FE08
:1032B0003220FEF735FE04E0A57020215046FFF7CE
:1032C00049FC49461948FFF721FD58B1E770102124
:1032D0005046FFF741FC16A0FEF71CFE3220FEF719
:1032E0001FFE04E0E57010215046FFF733FC6068D4
:1032F000401C606099E7000000440040040000208A
:1033000000040048436F6D6D616E64203D202563AD
:103310000A0000002D2D2053454E534F52203120DE
:10332000416374697665202D2D0A0000000800486D
:103330002D2D2053454E534F522032204163746946
:103340007665202D2D0A000040B1012808D0022802
:1033500008D0032808D105A0FEF7DCBD08A0FBE7D4
:1033600004A0F9E709A0F7E7704700005265766509
:10337000727365204C616E6473636170650A00004E
:10338000506F7274726169740A000000526576654C
:1033900072736520506F7274726169740A00000064
:1033A0002DE9FC5F5F4CE068FDF790F86FF01D05BC
:1033B0002946FDF70DF800902069FDF787F82946AA
:1033C000FDF706F881466069FDF780F82946FCF7AD
:1033D000FFFF8046A069FDF779F82946FCF7F8FF62
:1033E000064641460846FCF783FF054649460190DC
:1033F0000846FCF77DFF2946FCF722FF0121FCF778
:10340000E7FF4FF07E51FCF770FFFDF7B9F8074674
:103410000D4631464046FCF76BFF82464946009810
:10342000FCF766FF5146FCF70BFF0121FCF7D0FFCC
:10343000FDF7A6F83A462B46FEF7ACFCFDF7B3F8CD
:10344000834649463046FCF753FF054641460098FF
:10345000FCF74EFF2946FCF745FF0121FCF7B8FFBA
:10346000FDF78EF8FEF74EFAFDF79DF882463146DD
:103470000846FCF73DFF01460198FCF7E1FE0121FB
:10348000FCF7A6FF4FF07E51FCF72FFFFDF778F811
:1034900007460D4641464846FCF72AFF804631461E
:1034A0000098FCF725FF4146FCF7CAFE0121FCF716
:1034B0008FFFFDF765F83A462B46FEF76BFCFDF7EC
:1034C00072F805465846FDF75BF8174E174F32461F
:1034D0003B46FCF789FFDFF8588000224346FCF7A3
:1034E00083FFFDF72EF8A0835046FDF749F83246DA
:1034F0003B46FCF779FF00224346FCF775FFFDF7DA
:1035000020F8E0832846FDF73BF832463B46FCF7BF
:103510006BFF00224346FCF767FFFDF712F820849B
:10352000BDE8FC9F9C000020F8C1631ADCA54C405C
:103530000000594070B51EA0FEF7ECFC00F094FDB1
:103540004FF0FF3508B121A017E0782001F082FB91
:10355000782000F063F8142001F03CFB1F4C03209E
:1035600000216070A1706161E1601DA02161FEF722
:10357000D1FCFEF769FE20B11EA0FEF7CBFC284669
:1035800070BD2148FEF712FF2048FEF709FFF32027
:103590002083FEF7F5FC1420FEF70EFF012001F05A
:1035A0003FFA0120A0701AA0FEF7B4FC002070BD05
:1035B0002D2D20436F6E6669677572696E67204DA9
:1035C0005055363035302E2E2E2000004641494CC5
:1035D00020284D5055292E0A0000000070000020C0
:1035E0002077726974696E6720444D502E2E2E200C
:1035F00000000000204641494C2028444D5029201D
:103600002D2D0D0A00000000F94E00084933000876
:10361000204F4B202D2D0D0A000000002DE9F04118
:10362000124C20F00101002594F8240010B1002074
:10363000BDE8F081A07A4FF0FF3668B10840277CE2
:103640002074884200D0354641B1012001F0E8FDE8
:1036500001F01CF838B127743046E9E7207D00B14D
:10366000012001F0DDFD2846E2E700003C000020DB
:103670000D494A7A42B1012A08D0022A0FD0032A02
:103680000FD04FF0FF307047022200E0042202709A
:10369000C97C11B11106C90D0170002070470822C4
:1036A000F5E71022F3E700003C0000202DE9F0418F
:1036B00052488CB000260168406809AAC97C00788D
:1036C000FFF7C7FC9DF824004D4D80074FF001081F
:1036D00001D085F8048008A8FFF704FA2969089842
:1036E000814203D200F5FA70012628612879444C02
:1036F00000272C34F0B3A878E0B30AA906A8CDE9D6
:10370000000107ABA4F1100204A902A8FEF7A6FD70
:103710009DF8280000B92F71BDF8180010F0700F47
:1037200015D0BDF808002080BDF80A006080BDF803
:103730000C00A0805EB1314807A9001F00F0A6F878
:103740002E486421001F0068484300146084BDF9BE
:103750001800010708D5BDF81010E180BDF812105F
:103760002181BDF814106181C0050DD524481C309D
:10377000016800E00BE0E1604168216181686161FE
:10378000C068A061FFF70CFE0CB0BDE8F08128799D
:103790000028F9D02F710AA8009005AB07AA03A949
:1037A00001A800F023FE9DF8280008B185F80480E8
:1037B0009DF8140010F0700F12D0BDF804002080A6
:1037C000BDF806006080BDF80800A08046B107A9DA
:1037D00006A800F05BF80698642148430014608452
:1037E0009DF814000007CFD5BDF80C00E080BDF8AF
:1037F0000E002081BDF810006081C5E73C0000206C
:10380000700000200B49097A39B1012907D002293B
:103810000AD003290BD0002103E0FA2101E04FF484
:10382000FA710180002070474FF47A71F9E74FF484
:10383000FA61F6E73C0000200C49C97A072913D247
:10384000DFE801F01204060A0C0E1000BC2100E0B3
:1038500062210180002070472A21FAE71421F8E74D
:103860000A21F6E70521F4E70021F2E73C000020F9
:10387000054991F8242012B14FF0FF307047C989F3
:1038800001800020704700003C000020F8B51C4C6F
:1038900006460F46A07A4FF0FF3540B120686B46D0
:1038A0000222017C60680078FFF7D8FB08B1284647
:1038B000F8BDBDF8000040BA05B217B13846FFF7B1
:1038C00011F96468E088FCF70AFE0746B4F90800BD
:1038D000FCF7FCFD04462846FCF7F8FD2146FCF702
:1038E00001FD3946FCF736FD0649FCF7A9FC10211D
:1038F000FCF76EFDFCF7F8FD30600020F8BD00001D
:103900003C00002000000C4238B5724C6528A178BC
:1039100062696DD026DC33286BD009DCA0F12C0065
:10392000072867D2DFE800F0D19AD09A9BA3B200B3
:10393000684B38285B7874D00DDC342869D0352882
:1039400058D100294FF0640068D0FEF735FD0028FB
:1039500050D161A00DE3392866D061287ED182F074
:1039600001007AE001256638122877D2DFE800F0FE
:10397000B1670976767676767676736A63B0707616
:10398000AFAE5AA0FEF7C6FA66A0FEF7C3FA6BA068
:10399000FEF7C0FA72A0FEF7BDFA79A0FEF7BAFAF8
:1039A0007EA0FEF7B7FA85A0FEF7B4FA8AA0FEF76C
:1039B000B1FA90A0FEF7AEFA98A0FEF7ABFAA0A07D
:1039C000FEF7A8FAA5A0FEF7A5FAA9A0FEF7A2FAAD
:1039D000AFA0FEF79FFAB6A0FEF79CFABCA0FEF7D8
:1039E00099FAC3A0FEF796FACAA0FEF793FA02E08E
:1039F0002BE05AE032E0D2A0FEF78CFAD9A0FEF715
:103A000089FADDA0FEF786FAE2A0FEF783FA01E06C
:103A100007E051E2E8A0FEF77DFA00E05CE2F4A0E6
:103A2000A7E283F0010001E083F002006070BDE8CE
:103A3000384001F06BB9BDE8384000F0F9BD82F0C4
:103A400002000AE082F0040007E082F0080004E0CF
:103A500082F0100001E082F02000606138BD00209B
:103A6000FEF706FD0020FEF716FDEFA081E24FF005
:103A70000A0029B1FEF7A0FC0028EFD1F0A078E2FF
:103A800001F0A8F80028E9D1F2A072E24FF014008A
:103A900029B1FEF791FC0028E0D1F3A069E201F022
:103AA00099F80028DAD1F5A063E24FF0280029B197
:103AB000FEF782FC0028D1D1F5A05AE201F08AF885
:103AC0000028CBD1F7A054E20EE20BE24FE241E234
:103AD00061E20EE270000020444D502073657420B6
:103AE000746F2031303020487A2E0A003D3D3D3D34
:103AF0003D3D3D3D3D3D3D3D3D3D3D3D3D3D3D2013
:103B000048454C5020434F4D4D414E4453203D3D80
:103B10003D3D3D3D3D3D3D3D3D3D3D3D3D3D3D3DD5
:103B20003D0A0000683A205072696E742048656C46
:103B30007020636F6D6D616E64730A00383A2053B4
:103B4000657420416363656C65726F6D6574657241
:103B50002073656E736F72206F6E2F6F66660A003A
:103B6000393A20536574204779726F73636F7065BB
:103B70002073656E736F72206F6E2F6F66660A001A
:103B8000723A205072696E74205265676973746569
:103B900072732076616C75650A000000613A2050EE
:103BA00072696E7420416363656C65726F6D6574D4
:103BB000657220646174610A00000000673A205059
:103BC00072696E74204779726F73636F70652064D9
:103BD0006174610A00000000713A205072696E74CD
:103BE000205175617465726E696F6E2064617461D5
:103BF0000A000000653A205072696E742045756CA9
:103C0000657220616E676C657320696E20646567FC
:103C1000726565202A203130300A0000743A205045
:103C200072696E742054656D706572617475726529
:103C300020696E2064656743202A203130300A00F5
:103C4000703A205072696E74205065646F6D6574AF
:103C5000657220646174610A00000000303A2052ED
:103C600065736574205065646F6D657465720A00D4
:103C7000313A2053657420444D502F4D50552066E5
:103C800072657175656E637920313020487A0A005B
:103C9000323A2053657420444D502F4D50552066C4
:103CA00072657175656E637920323020487A0A003A
:103CB000333A2053657420444D502F4D50552066A3
:103CC00072657175656E637920343020487A0A0018
:103CD000343A2053657420444D502F4D5055206682
:103CE00072657175656E637920353020487A0A00F7
:103CF000353A2053657420444D502F4D5055206661
:103D000072657175656E63792031303020487A0AAA
:103D1000000000002C3A2053657420444D50206967
:103D20006E7465727275707420746F206765737439
:103D3000757265206576656E74206F6E6C790A0009
:103D40002E3A2053657420444D5020696E7465727C
:103D50007275707420746F20636F6E74696E756F06
:103D600075730A00663A2053657420444D50206FE5
:103D70006E2F6F66660A0000763A205365742051F4
:103D800075617465726E696F6E206F6E2F6F6666F7
:103D90000A000000773A2054657374206F75742010
:103DA0006C6F772D706F77657220616363656C202F
:103DB0006D6F64650A000000733A2052756E2073BF
:103DC000656C662D74657374202864657669636517
:103DD000206D75737420626520666163696E67206B
:103DE0007570206F7220646F776E290A00000000E2
:103DF0003D3D3D3D3D3D3D3D3D3D3D3D3D3D3D3DF3
:103E00003D3D3D3D3D3D3D3D3D3D3D3D3D3D3D3DE2
:103E10003D3D3D3D3D3D3D3D3D3D3D3D3D3D3D3DD2
:103E20003D3D3D3D3D0A00005065646F6D65746524
:103E30007220726573657420646F6E652E0A0000CF
:103E4000444D502073657420746F20313020487ABF
:103E50002E0A00004D50552073657420746F203178
:103E60003020487A2E0A0000444D5020736574209B
:103E7000746F20323020487A2E0A00004D505520B1
:103E800073657420746F20323020487A2E0A000047
:103E9000444D502073657420746F20343020487A6C
:103EA0002E0A00004D50552073657420746F203425
:103EB0003020487A2E0A00004FF0320031B1FEF770
:103EC0007BFA00287FF4CAAD35A052E000F082FEF4
:103ED0000028F7D137A04CE000F07CFE0028F1D19B
:103EE00039A046E0012000E00220BDE83840FEF79E
:103EF00095BA20780028E5D1F9B10025A5702846AB
:103F000000F08EFD6078C10700D00825810701D53B
:103F100045F07005400701D545F001052846FFF73B
:103F20007DFB6846FEF754F9BDF8000000F052FE34
:103F30002AA000BFFDF7EEFF38BDA5706846FFF769
:103F400097FCBDF80000FEF737FA012000F068FD8D
:103F500026A0EFE7208B80F010002083FEF710F8FA
:103F6000207EC00601D425A003E02BA001E021B1F2
:103F70002FA0BDE83840FDF7CDBF142000F022F996
:103F8000002000F0BFFD607820F0060040F0010046
:103F90006070257038BDBDE8384000F007BF0000F4
:103FA000444D502073657420746F20353020487A5A
:103FB0002E0A00004D50552073657420746F203513
:103FC0003020487A2E0A00004D5055207365742029
:103FD000746F2031303020487A2E0A00444D502032
:103FE00064697361626C65642E0A0000444D502060
:103FF000656E61626C65642E0A0000004C50207191
:1040000075617465726E696F6E2064697361626C4C
:1040100065642E0A000000004C50207175617465C3
:10402000726E696F6E20656E61626C65642E0A0047
:104030005761726E696E673A20466F72206C6F77B7
:104040002D706F776572206D6F64652C20444D5024
:10405000206E6565647320746F20626520646973E7
:1040600061626C65642E0A007CB52D4C80208DF851
:10407000000020686B460122417D60680078FFF7F0
:1040800027F84FF0FF36E8BB6420FDF749FF002515
:104090008DF8005020686B460122417D60680078F1
:1040A000FFF716F870BBE574FF20A07204F8080F44
:1040B000310C6070E070E1802072A07201202071EC
:1040C000A0761748E5766573001F257340F81A5FE0
:1040D0004560856025776577E5834FF4FA6000F0E9
:1040E000DBFC78B9022000F0F9FB58B92A2000F077
:1040F0003BFD38B9322000F06DFD18B90020FFF704
:104100008DFA00E004E018B9002000F01BFC08B1B3
:1041100030467CBD002000F09DFD00207CBD0000ED
:104120003C0000202DE9FF4FDFF89480064685B063
:1041300098F8250015460F464FF0FF39B0BBAFB3D6
:10414000002420E0301B102800DD102080B28346C0
:104150003A1901469246204600F008FF30BB6A46F5
:104160005946204600F03AFA00BB50465A46694686
:10417000FCF759F820B16FF0010009B0BDE8F08FED
:1041800004EB0B0084B2B442DCD3280A8DF8100093
:104190008DF81150D8F80000444604AB417FD8F8A0
:1041A000040002220078FEF793FF08B14846E4E7D6
:1041B000012084F825000898E0840020DDE7000055
:1041C0003C0000202DE9F84305464FF0FF39282830
:1041D00044D80727284C00267DB1012000F092FC2E
:1041E00020208DF800004FF00108012D17D0052D7B
:1041F00018D88DF8018005201FE0002000F082FC17
:104200008DF800608DF8017020686B460222417DB8
:1042100060680078FEF75CFF00BB267529E08DF82A
:104220000160E8E7142D04D802208DF801000A206F
:1042300003E003208DF80100142000F095FC9DF8A8
:1042400001006B4607EB80108DF801002068022208
:10425000417D60680078FEF73BFF10B14846BDE83D
:10426000F8830820A072267384F814800020FFF7DA
:10427000D5F90020F3E700003C0000203EB52B4DAF
:1042800005F12C04287DC00708D0B4F90A30B4F930
:104290000820B4F9061026A0FCF7F8FD287D800759
:1042A00008D5B4F90430B4F90220B4F9001028A0FC
:1042B000FCF7ECFD287D400707D5A069009004F1CC
:1042C0000C012AA00EC9FCF7E1FD287D000708D5E6
:1042D000B4F92030B4F91E20B4F91C102DA0FCF75D
:1042E000D5FD287DC00604D5B4F9221031A0FCF715
:1042F000CDFD287D800618D501A8FEF7F3FBE968FF
:104300000198814211D200F57A70E8606846FDF7A5
:1043100067FF02A8FDF77CFF02984FF47A71B0FBAB
:10432000F1F229A00099FCF7B1FD3EBD700000201C
:10433000416363656C5B58595A5D3A2009202564D6
:1043400020092025642009202564200A000000009F
:104350004779726F5B58595A5D3A200920256420CD
:10436000092025642009202564200A005175617404
:104370005B5758595A5D3A200920256C6420092062
:10438000256C64200920256C64200920256C64209C
:104390000A00000045756C65725B5250595D3A2009
:1043A0000920256420092025642009202564200A8D
:1043B0000000000054656D70657261747572653A35
:1043C000202564200A00000057616C6B656420257D
:1043D0006C6420737465707320696E20256C642092
:1043E0007365636F6E64732E2E0A00002DE9FF4F14
:1043F000814655488846002490F8241083B01E4614
:1044000025464FF0FF3BD1BB00213170817AB1B31B
:10441000017CA1B34A0600D502248A0600D5A41C5B
:10442000CA0600D5A41C090700D5A41D0168824650
:104430004068097B6B4600780222FEF70FFEF0B958
:10444000BDF8000047BAA7427BD3DAF804205088B1
:10445000B7EB500F14D9DAF800006B46C17C107826
:104460000122FEF7FBFD50B99DF80000C00607D5FC
:1044700000F00CF96FF0010007B0BDE8F08F0DE01F
:104480000598FEF72FFBDAF80010DAF804006B4607
:10449000497B00782246FEF7E1FD08B15846EBE77C
:1044A000B7FBF4F01099401E087000203070ECB398
:1044B0009AF8101050460A07694613D5BDF8002037
:1044C000062552BAA8F80020BDF8022052BAA8F872
:1044D0000220BDF8042052BAA8F80420327842F035
:1044E00008023270A5420CD0027C520609D54A1946
:1044F000AD1C128852BAA9F80020327842F040026E
:104500003270A5420CD0027C920609D54A19AD1C26
:10451000128852BAA9F80220327842F02002327092
:10452000A5420ED09AF81000C00600E009E008D5B8
:104530004819008840BAA9F80400307840F010000B
:104540003070002098E700003C0000202DE9F8437F
:10455000214C0646174694F8240089464FF0FF3850
:1045600090B3A07A80B320686B460222017B60681A
:104570000078FEF773FD38BBBDF8000045BAB542C0
:1045800002D2002038701FE060684188B5EB510FFF
:1045900011D9216800786B46C97C0122FEF75EFDC7
:1045A00090B99DF80000C00605D500F06FF86FF0D7
:1045B0000100BDE8F8832068F2B24B46417B606899
:1045C0000078FEF74BFD08B14046F2E7B5FBF6F088
:1045D000401E38700020ECE73C000020F8B51600C3
:1045E0000D464FF0FF371FD0104CA17AE1B1010A00
:1045F0008DF80010C0B28DF8010041196068428941
:10460000914211D8216800786B46C97E0222FEF7DC
:104610005FFD48B92068EAB23346017E60680078E1
:10462000FEF71CFD002800D03846F8BD3C000020F5
:1046300038B50024104D18E029684A7BA24212D0F8
:10464000097EA1420FD000786B4601222146FEF779
:1046500005FD10B14FF0FF3038BD9DF80020214618
:1046600006A0FCF713FC641CE4B268680179A1425F
:10467000E2D8002038BD00003C000020252335781A
:104680003A20252335780D0A00000000F8B5564C75
:104690004FF0FF36A07A00287DD000258DF800501D
:1046A00020686B460122417C60680078FEF710FDAF
:1046B000002870D120686B4601224179606800783B
:1046C000FEF706FD002866D120686B4601220179BD
:1046D00060680078FEF7FCFC00285CD194F82400A8
:1046E000E0B30C208DF8000020686B4601220179B0
:1046F00060680078FEF7ECFC002872D13220FDF7EC
:104700000FFCC0208DF80000A07AC00702D0E02086
:104710008DF8000020686B460122017960680078FE
:10472000FEF7D6FC00285CD1607C18B102208DF821
:10473000000001E08DF8005020686B460122417CAA
:1047400060680078FEF7C4FC28BB8DF80050206834
:104750006B4601224179606800783EE0FFE7042063
:104760008DF8000020686B460122017960680078AE
:10477000FEF7AEFC78B9A07C90B9A07AC0070FD044
:104780005FF060008DF8000020686B46012201791F
:104790006068007800E024E0FEF79AFC08BB01E0C6
:1047A0004020EFE73220FDF7BBFB607C18B1012011
:1047B0008DF8000001E08DF8005020686B46012262
:1047C000417C60680078FEF783FC50B92068064B96
:1047D00001224179606810330078FEF779FC0028E7
:1047E00000D03046F8BD00003C0000202DE9F04725
:1047F000394C82468AB094F82400894620B10020C2
:1048000000F00EF9012600E0002607A8FEF7FAFFE7
:1048100006A8FEF72DFF09A8FFF70EF808A8FFF776
:1048200027F894F80A80277C002500224946504644
:10483000FDF7CEFF10B16D1C022DF6DB022D1AD054
:104840000025012203A96846FDF7C2FF10B16D1CC7
:10485000022DF6DB022D0ED003A94846FDF712F813
:10486000C5B269465046FEF799FA10F0FF0F4FF0B7
:10487000000002D002E0002505E001200DB940F063
:10488000020040F00405FF2020726072E0724FF6D3
:10489000FF71E181A072207401202073BDF81C001B
:1048A00000F0FAF89DF8180000F018F8BDF82400A0
:1048B00000F05AF9BDF8200000F08CF9404600F0F5
:1048C000C9F93846FEF7AAFE16B1012000F0A8F893
:1048D0000AB02846BDE8F0873C00002038B5184CE7
:1048E0004FF0FF35A17A19B3022806D0042806D06C
:1048F00008280ED010281BD10DE0002000E0082071
:104900008DF80000607A9DF80010B0EBD10F04D054
:1049100005E01020F4E71820F2E7002038BD2068F9
:104920006B460122C17960680078FEF7D1FB08B1BF
:10493000284638BD9DF80000C0086072EDE7000011
:104940003C000020F8B5354C0546A07CA84201D1BA
:104950000020F8BD31484FF0FF366B46D0E900101B
:104960004FF001020979007835B3FEF777FB70BB91
:104970009DF800006B4620F020008DF800002068B4
:104980000122017960680078FEF7A2FBF8B90320E4
:10499000FDF7C6FA02208DF8000094F8220078B3E3
:1049A00082202BE020686B460122C17D6068007880
:1049B000FEF78EFB58B92EE0FEF750FB38B9A07A0F
:1049C000C0079DF8000003D040F0200002E00CE09A
:1049D00020F020008DF8000020686B46012201794C
:1049E00060680078FEF774FB08B13046F8BD03201C
:1049F000FDF796FA94F8220000B180208DF80000AF
:104A000094F823000028CDD09DF8000040F030003D
:104A10008DF80000C6E7A5749AE700003C0000206E
:104A200038B51C4C94F8241081421DD0002500B3E9
:104A300094F82500D0B1002000F0F2FB0020FFF731
:104A400081FFE08C00F0C6F88DF8005060686B467E
:104A5000012200782321FEF73BFB012084F824008B
:104A600000F0DEFBFFF712FE002038BD4FF0FF30F4
:104A700038BD002000F0D4FB207C8DF80000606879
:104A80006B46012200782321FEF722FB84F8245094
:104A9000E8E700003C00002038B5194C4FF0FF3526
:104AA000A17A31B3FA2809D0B0F5FA7F08D0B0F571
:104AB0007A7F0FD0B0F5FA6F1BD10DE0002000E037
:104AC00008208DF80000207A9DF80010B0EBD10F7F
:104AD00004D005E01020F4E71820F2E7002038BDEC
:104AE00020686B460122817960680078FEF7F0FA51
:104AF00008B1284638BD9DF80000C0082072EDE7D7
:104B00003C00002038B5174C054694F82300A84215
:104B100001D1002038BD0DB1302000E000208DF81B
:104B20000000A07C28B19DF8000040F002008DF844
:104B3000000094F8220028B19DF8000040F08000A9
:104B40008DF8000020686B460122C17D6068007806
:104B5000FEF7BEFA10B14FF0FF3038BD84F8235095
:104B6000D7E700003C00002038B5194C4FF0FF3566
:104B7000A17A31B3BC2801D3012010E0622801D30F
:104B800002200CE02A2801D3032008E0142801D3D6
:104B9000042004E00A2801D3052000E006208DF857
:104BA0000000E07A9DF80010884201D1002038BD55
:104BB00020686B460122817860680078FEF788FAE9
:104BC00008B1284638BD9DF80000E072EEE700000D
:104BD0003C000020F8B51E4D04464FF0FF37A87A80
:104BE00048B395F8240030BB287D4FF47A7648B15D
:104BF00064B1282C03D82046FFF7E4FA26E0002011
:104C0000FFF7E0FA042C05D2042406E00020FFF7A9
:104C1000D9FAF9E7B44200D93446B6FBF4F0401EA5
:104C20008DF8000028686B4601224178686800789A
:104C3000FEF74EFA08B13846F8BD9DF80000401C5A
:104C4000B6FBF0F0E8814008FFF78EFF0020F8BDCA
:104C50003C000020F8B5054610F0700F4FF000063C
:104C600001D0012004E015B18DF8006002E0402081
:104C70008DF80000244C6B4601222068417D60685D
:104C80000078FEF725FA4FF0FF3760BB9DF8000073
:104C900020F0400020738DF80060680602D40420E4
:104CA0008DF80000A80605D49DF8000040F0020031
:104CB0008DF80000E80605D49DF8000040F00100E2
:104CC0008DF80000280705D49DF8000040F038005A
:104CD0008DF8000020686B460122817D60680078B5
:104CE000FEF7F6F910B1A6723846F8BD25B1082DC9
:104CF00002D00020FFF706FFA57226753220FDF7CF
:104D00000FF90020F8BD00003C000020F8B5124E5D
:104D1000002425467078C00702D008240FA000E0C8
:104D200013A0FDF7F7F87078800704D544F07004FD
:104D3000357814A000E018A0FDF7ECF82046FFF746
:104D400089FF2046FEF76AFC002D04D00020307059
:104D50006846FEF78DFDF8BD700000204163636575
:104D60006C2073656E736F72204F6E2E0A00000008
:104D7000416363656C2073656E736F72204F666666
:104D80002E0A00004779726F2073656E736F722070
:104D90004F6E2E0A000000004779726F2073656E17
:104DA000736F72204F66662E0A0000002DE9F041F5
:104DB0008AB007A904A8FFF719FD0446072802D006
:104DC000E0074ED050E02EA0FDF7A4F80998FBF7BD
:104DD0007DFB6FF00F084146FBF7FAFAFBF7D0FBBB
:104DE00006460F460898FBF771FB4146FBF7F0FAC1
:104DF000FBF7C6FB04460D460798FBF767FB4146E9
:104E0000FBF7E6FAFBF7BCFB8DE8F00002460B4629
:104E10001EA0FCF73BF80698FBF758FB4146FBF752
:104E2000D7FAFBF7ADFB06460F460598FBF74EFB9E
:104E30004146FBF7CDFAFBF7A3FB04460D46049869
:104E4000FBF744FB4146FBF7C3FAFBF799FB8DE800
:104E5000F00002460B4614A0FCF718F80AB0BDE8B3
:104E6000F08118A0FDF756F8A00702D419A0FDF7AD
:104E700051F86007F2D41BA0FDF74CF8EEE70000F4
:104E8000506173736564210A00000000616363650B
:104E90006C3A2025372E34662025372E346620259F
:104EA000372E34660A0000006779726F3A20253782
:104EB0002E34662025372E34662025372E34660A98
:104EC000000000004779726F206661696C65642E8E
:104ED0000A000000416363656C206661696C65646B
:104EE0002E0A0000436F6D70617373206661696CF8
:104EF00065642E0A0000000010B50C46072818D281
:104F0000DFE800F01704060F1113150009A000E0F8
:104F10000AA0FCF7FFFF2146BDE8104009A0FBF7FF
:104F2000B5BF0AA0F5E70BA0F3E70CA0F1E70DA0D1
:104F3000EFE710BD54617020582B200054617020A1
:104F4000582D2000782025640A000000546170204C
:104F5000592B200054617020592D2000546170207D
:104F60005A2B2000546170205A2D2000F8B51600ED
:104F70000D464FF0FF371FD0104CA17AE1B1010A66
:104F80008DF80010C0B28DF80100411960684289A7
:104F9000914211D8216800786B46C97E0222FEF743
:104FA00097F848B92068EAB23346017E6068007815
:104FB000FEF78EF8002800D03846F8BD3C000020EF
:104FC00070B5214B00252C461E68C6F30226072E1D
:104FD00014D01E68C6F30226062E11D01E68C6F332
:104FE0000226052E0FD01E68C6F30226042E0DD011
:104FF0001B68C3F30223032B0BD00BE0042409E04E
:105000000125032406E002252C4603E003250124A4
:1050100000E00425C5F104039940C4F104040F2302
:10502000E34013400B4300F1E022190182F8001421
:1050300000F01F02012191404009800000F1E020B2
:10504000C0F8001170BD00000CED00E002490843FB
:1050500002490860704700000000FA050CED00E00E
:105060002DE9F04751A688B05ACE8DE85A0050A3DA
:105070008046D3E90013CDE904134DA10020D1E906
:105080000031CDE906314D4B0546024659684C4E7C
:10509000C1F3810119B1012901D0022901D03146A2
:1050A00017E059685C68C1F38341C4F3C0640CB174
:1050B000113100E0891C5C68C4F300443CB1DC6A37
:1050C00004F00F04641CB6FBF4F4614301E03D4CB2
:1050D00061435C68C4F303141DF8047021FA07F4FB
:1050E0005F680DF1100CC7F302271CF8077024FA53
:1050F00007F95F680DF1180CC7F3C2274FF4004A97
:105100001CF8077024FA07F7B8F1070F06D2DFE89A
:1051100008F004080A0C0E293100084608B0BDE862
:10512000F0872046FAE74846F8E73846F6E7186B76
:10513000C00501D4244D13E05868C0F3813030B16C
:10514000012806D0022806D0032809D107E07D08EF
:1051500006E0BD0804E00620B7FBF0F500E0FD081E
:105160002846DBE7186B400602D448F21200D5E768
:105170005046D3E7186B80070ED0186B00F0030081
:1051800001280BD0186B00F00300022808D0186B20
:10519000C043800706D006E03A4604E00A4602E033
:1051A000524600E032461046B8E70000000000001A
:1051B0000000000001020304060708090010024075
:1051C00000127A0000093D00809FD500054901EBDF
:1051D00090110A6800F01F030120984002430A6002
:1051E0007047000000100240054901EB90110A6869
:1051F00000F01F030120984082430A6070470000BE
:1052000000100240054901EB90110A6800F01F03ED
:105210000120984002430A607047000000100240DD
:10522000F8B5144C0146224694F82460D2E90002F5
:1052300000235D1E56B179B1022111E0417C107846
:105240006B460122FDF744FF68B90EE0A67A56B11D
:1052500011B1617C61B902E08DF80030EEE7012107
:105260008DF80010EAE72846F8BD9DF8000060744C
:105270000020F8BD3C0000202DE9F04106460F4615
:10528000FBF729FC041E0D4618BF0120284320F01F
:105290000040C0F17F6000F1E040C00F0ED0301C34
:1052A00018BF0120384320F00040C0F17F6000F1BA
:1052B000E040C00F04BF0120FBF784FE20462946D2
:1052C000BDE8F08110484168416041684160416833
:1052D000416041680D4A1140416041680C4A1143E8
:1052E0004160016841F08071016001688901FCD56D
:1052F000416821F003014160416841F002014160D1
:1053000041680907FCD5704700100240FFFFC2F753
:105310000000040870B50E484FF47A710068B0FBC5
:10532000F1F0401EB0F1807F11D24FF0E0246061B7
:1053300065170F212846FBF75BFD0020A0610720C1
:1053400020612846BDE870400021FBF751BDFEE713
:105350000000002002480168491C016070470000FD
:105360002000002070B50D46044614490020611845
:1053700004D0B1F5744F04D1062000E00220FFF7FD
:105380006FFE21684FF6F07209040BD5400000EB68
:105390005500B0FBF5F000EA0201C0F3420241EA19
:1053A000020008E000EB5500B0FBF5F101EA020055
:1053B00001F00F010843E06070BD000000BCFFBFBA
:1053C0002DE9F047894605462949002429488D42A0
:1053D00002D0854200D1012440F21150FFF7F6FEC1
:1053E000254830F81400FFF7F1FE234E4FF09048A7
:1053F000361D012156F824204046FDF779FB06F1C1
:105400000807012157F824204046FDF771FB56F8A4
:105410002430012202214046FDF77DFC56F824305D
:10542000012200214046FDF799FC57F82430012263
:1054300002214046FDF76FFC57F82430012200217D
:105440004046FDF78BFC284600F020F849462846E8
:10545000FFF788FF0821284600F048F80421284675
:1054600000F03CF82846BDE8F04700F027B80000FF
:1054700000380140004400400C000020406AC0F3A6
:1054800008007047C1F30801816270470A4910B5EE
:10549000401805D0B0F5744F0CD140F20E3401E045
:1054A00040F211442046FFF7ADFE2046BDE8104013
:1054B000FFF79ABE10BD000000BCFFBF016841F0BD
:1054C00001010160704700EB9110006801F01F02BC
:1054D00001219140084000D001207047026822F06D
:1054E0000402026002680A4302607047026822F008
:1054F0000802026002680A430260704775191A0CBC
:105500006A231B1C00001F207274433B4138393A48
:10551000006B6C376F06246D6E70680000047600B7
:105520005401F7FD000100008300000000080000A6
:105530000001001832000500000020410000D242A6
:10554000295C0F3E9A99993E3333733F295C0F3E95
:1055500000007000000000240000000200030000B2
:1055600000650054FFEF0000FA80000B128200017A
:10557000030C30C30E8C8CE914D5400213710F8ECE
:105580003883F8833000F883258EF8833000F88361
:10559000FFFFFFFF0FFEA9D6240004001A8279A1A5
:1055A0000000003CFFFF00000010000038836FA2E5
:1055B000003E03304000000002CAE3093E800000C4
:1055C000200000000000000040000000600000001B
:1055D000000C0000000C186E000006920A16C0DFD6
:1055E000FFFF0256FD8CD377FFE1C496E0C5BEAA4B
:1055F00000000000FFFF0B2B0000165700000359AE
:105600004000000000001DFA00026C1D00000000B8
:105610003FFFDFEB003EB3B6000D227800002F3CC9
:1056200000000000001942B5000039A20000B36577
:10563000D90E9FC91DCF4C3430000000500000002F
:105640003BB67AE80064000000C8000000000000DB
:10565000100000001000FA921000225E000D229F40
:105660000001000000320000FF46000063D400008B
:105670001000000004D6000004CC000004CC0000A0
:105680000000107200000040000000000000000058
:105690000006000200050007000000000064000092
:1056A000000000000000000500050064002000006C
:1056B00000000000000000000000400000000300A7
:1056C00000000032F8980000FF650000830F000022
:1056D000FF9BFC0000000000000000000000000034
:1056E00000000000000000000000000000000000BA
:1056F000000000000000000000000000000010009A
:1057000040000000000000060000B26A0002000035
:105710000001FB830068000000D9FC007CF1FF83DE
:105720000000000000650000006403E80064002839
:10573000000000250000000016A00000000010007E
:1057400000001000002F0000000001F40000100015
:1057500000280000FFFF4581FFFFFA7200000000F3
:1057600000000000004400050005BAC6004778A20A
:10577000000000010000000000000600000000140E
:105780000000254D002F706D000005AE000C02D00A
:105790000000000000000000000000000000000009
:1057A000001B0000000000000000000000000000DE
:1057B000006400000008000000000000000000007D
:1057C00000000000000000000000000000000000D9
:1057D00000000000000000000000000000000000C9
:1057E00000000000000000000000000000000000B9
:1057F00000000000000000000000000000000000A9
:105800000000000000000000000000000000000098
:10581000001B00000000000000000000000E000E51
:1058200000000AC70004000000000032FFFFFF9CD8
:1058300000000B2B000000020000000100000064CB
:10584000FFE5000000000000000000000000000074
:105850000000000100000000000100000000000046
:10586000000180000001800000018000002426D398
:105870000000000000000000000600100096003C40
:105880000000000000000000000000000000000018
:105890000C0A4E68CDCF770950166759C619CE82CB
:1058A00000000000000000000000000000000000F8
:1058B000000000000000000017D784000300000073
:1058C0000000000000000000C7938F9D1E1B1C19E4
:1058D00000000000000000000000000000000000C8
:1058E00000000000000000000203188500004000D6
:1058F00000000003000000030000000000000000A2
:105900004000000000000000000000000000000057
:105910000000000000000000000000000000000087
:105920000000000000000000000000000000000077
:1059300000000000677DDF7E72902E554CF6E688F1
:105940000000000000000000000000000000000057
:10595000D8DCB4B8B0D8B9ABF3F8FAB3B7BB8E9E05
:10596000AEF132F51BF1B4B8B08097F1A9DFDFDFFB
:10597000AADFDFDFF2AAC5CDC7A90CC92C97F1A910
:1059800089264666B28999A92D557DB0B08AA89618
:10599000365676F1BAA3B4B280C0B8A89711B283D4
:1059A00098BAA3F0240844106418B2B9B49883F1EB
:1059B000A329557DBAB5B1A38393F0002850F5B261
:1059C000B6AA839328547CF1B9A3829361BAA2DA70
:1059D000DEDFDB819AB9AEF5606870F1DABAA2DF7A
:1059E000D9BAA2FAB9A38292DB31BAA2D9BAA2F883
:1059F000DF85A4D0C1BBAD83C2C5C7B8A2DFDFDFDE
:105A0000BAA0DFDFDFD8D8F1B8AAB38DB4980D35CE
:105A10005DB2B6BAAF8C96198F9FA70E161EB49AB8
:105A2000B8AA872C547CBAA4B08AB691325676B202
:105A30008494A4C808CDD8B8B4B0F19982A82D55E3
:105A40007D98A80E161EA22C547C92A4F02C50789F
:105A5000F184A898C4CDFCD80DDBA8FC2DF3D9BAED
:105A6000A6F8DABAA6DED8BAB2B68696A6D0F3C839
:105A700041DAA6C8F8D8B0B4B882A892F52C5488F8
:105A800098F135D9F418D8F1A2D0F8F9A884D9C77B
:105A9000DFF8F883C5DADF69DF83C1D8F40114F1D8
:105AA000A8824EA884F311D182F5D992289788F163
:105AB00009F41C1CD884A8F3C0F9D1D99782F12924
:105AC000F40DD8F3F9F9D1D982F4C203D8DEDF1A84
:105AD000D8F1A2FAF9A88498D9C7DFF8F8F883C7F3
